:020000040800F2
:1000000048EA0020310300088D890008196E0008B5
:100010008989000861130008A5EC000800000000B1
:100020000000000000000000000000007102000855
:10003000BB22000800000000CD02000869C30008D0
:100040004B0300084B0300084B0300084B03000858
:100050004B0300084B030008B92600084B030008B7
:100060004B030008C3260008CD2600084B030008F8
:100070004B0300084B0300084B0300084B03000828
:100080004B0300084B0300084B0300084B03000818
:10009000651300084B0300084B030008D72600082F
:1000A0004B0300084B0300084B0300084B030008F8
:1000B000CDC400084B0300084B0300084B030008A5
:1000C0004B0300084B0300084B0300084B030008D8
:1000D0004B030008BDCE00084B0300088DCF00087D
:1000E0004B0300084B0300084B0300084B030008B8
:1000F0004B0300084B0300084B0300084B030008A8
:100100004B0300084B0300084B0300084B03000897
:100110004B0300084B0300084B0300084B03000887
:100120004B030008F9180008091900084B030008E0
:100130004B0300084B0300084B0300084B03000867
:10014000C51300084B0300084B0300089189000801
:10015000A1210008B1210008C1210008B9D0000880
:100160004B0300084B0300084B0300084B03000837
:100170004B0300084B0300084B030008000000007D
:100180004B0300084B03000800F002F800F060F891
:100190000AA090E8000C82448344AAF10107DA45E2
:1001A00001D100F055F8AFF2090EBAE80F0013F0D4
:1001B000010F18BFFB1A43F00103184754830100D5
:1001C000748301000A444FF0000C10F8013B13F057
:1001D000070408BF10F8014B1D1108BF10F8015BA0
:1001E000641E05D010F8016B641E01F8016BF9D193
:1001F00013F0080F1EBF10F8014BAD1C0C1B09D1EA
:100200006D1E58BF01F801CBFAD505E014F8016B5B
:1002100001F8016B6D1EF9D59142D6D370470000ED
:100220000023002400250026103A28BF78C1FBD8FF
:10023000520728BF30C148BF0B6070471FB517F089
:10024000F6F89DE8030000F0DDFA1FBD10B510BD03
:1002500000F05CFB1146FFF7F1FF13F0C3FE00F066
:100260007AFB03B4FFF7F2FF03BC00F0B1FB000020
:100270002C4B19680868B0E8F04F80F30988BFF389
:100280006F8F4FF0000080F311887047000000006E
:1002900008480068006880F308884FF0000080F389
:1002A000148862B661B6BFF34F8FBFF36F8F00DF64
:1002B00000BF00BF08ED00E0DFF80C00016841F46A
:1002C00070010160704700BF88ED00E0EFF3098026
:1002D000BFF36F8F134B1A681EF0100F08BF20ED8D
:1002E000108A20E9F04F106009B44FF0500080F3FD
:1002F0001188BFF34F8FBFF36F8F15F0CFF94FF019
:10030000000080F3118809BC19680868B0E8F04F54
:100310001EF0100F08BFB0EC108A80F30988BFF3FD
:100320006F8F70478C040020EFF30580704700004A
:100330000948804709480047FEE7FEE7FEE7FEE779
:10034000FEE7FEE7FEE7FEE7FEE7FEE704480549B5
:10035000054A064B7047000069C40008890100087F
:1003600048AA002048EA002048CA002048CA0020C5
:100370009FED1A1AF5EE000A40EE010ABDEEE00A02
:10038000F5EEC00A10EE100AF1EE10FA38BF401E6A
:1003900000EE100A1349F7EE001AB8EEC00A30EE6C
:1003A000C00ADFED0F0A20EE200AFCEEC00A10EEB4
:1003B000900AC0F3080000EE900A01EB8000F8EE0E
:1003C000600A90ED011A70EE600A90ED000A71EE7D
:1003D000E01A21EE800A00EE810A704783F9223E7E
:1003E00000000044A07C0108DFED190AB5EEC00A48
:1003F00060EE200ABDEEE01A11EE100AF1EE10FADE
:1004000038BF401E00EE100A1349F7EE001AB8EE8E
:10041000C00A30EEC00ADFED0F0A60EE200ABCEE23
:10042000E00A10EE100AC0F3080000EE100A01EB1B
:100430008000B8EE400A90ED011A70EEC00A90ED0F
:10044000000A71EEE01A21EE800A00EE810A704780
:1004500083F9223E00000044A07C010870B50646E6
:1004600000F0B4F9056806F10B0020F00704B4426F
:100470009CBF002070BD2B466A68BAB11068A042CC
:1004800010D304F1080188423CBF5068586007D37C
:100490005168101941601168091B016058601460AF
:1004A000101D70BD13465268002AE7D12146284628
:1004B00000F094F90028DED170BD70B50446051F28
:1004C00000F084F90068002C14BF446870BD002C53
:1004D00018BFAC423CBF20466468F8D301680A18D4
:1004E000AA4218BF456003D12A680546114401603D
:1004F00028684119A1421CBF6C6070BD61686960C9
:1005000021680844286070BD53EA020C00F069803D
:100510002DE9F04B4FF00006002B1FBFB3FA83F517
:1005200003FA05F424FA05F65E4012BF1643B2FA48
:1005300082F502FA05F4C5F120051EBF22FA05FC7A
:1005400044EA0C04203556EA044C4FEA144418BF20
:10055000641C4FF000084FF00009904271EB030C4F
:1005600039D3002919BFB1FA81F701FA07F6B0FAB9
:1005700080F700FA07F6C7F120071EBF20FA07FC34
:1005800046EA0C062037B6FBF4FCA7EB0507103F44
:1005900007F01F0BCBF120060CFA0BFB2CFA06F62A
:1005A00044BFB3460026202FA4BF5E464FF0000B89
:1005B0005BEA060C08BF4FF0010B19EB0B09ABFB14
:1005C000027C48EB0608C01B06FB02CC0BFB03CCED
:1005D00071EB0C01C1E70B46024641464846BDE8B7
:1005E000F08B13B54FF000004FF00001AFF3008027
:1005F000BDE81C40704710B5431C02E010F8011B19
:1006000071B18107FAD14FF0013202C88C1A8C43C4
:1006100014EAC211F9D0C01A0A0603D0C01E10BDD8
:10062000C01A10BD0A0401D0801E10BD0902FCD002
:10063000401E10BD032A40F2308010F0030C00F081
:10064000158011F8013BBCF1020F624498BF11F80C
:1006500001CB00F8013B38BF11F8013BA2F10402C5
:1006600098BF00F801CB38BF00F8013B11F003033D
:1006700000F02580083AC0F0088051F8043B083AA1
:1006800051F804CBA0E80810F5E7121D5CBF51F843
:10069000043B40F8043BAFF30080D20724BF11F8BD
:1006A000013B11F801CB48BF11F8012B24BF00F822
:1006B000013B00F801CB48BF00F8012B704710B593
:1006C000203AC0F00B80B1E81850203AA0E818504A
:1006D000B1E81850A0E81850BFF4F5AF5FEA027C0B
:1006E00024BFB1E81850A0E8185044BF18C918C07A
:1006F000BDE810405FEA827C24BF51F8043B40F81B
:10070000043B08BF7047D20728BF31F8023B48BFFF
:1007100011F8012B28BF20F8023B48BF00F8012B3D
:10072000704702F0FF0343EA032242EA024200F06C
:1007300002B84FF000020429C0F0128010F0030C40
:1007400000F01B80CCF1040CBCF1020F18BF00F8C4
:10075000012BA8BF20F8022BA1EB0C0100F00DB873
:100760005FEAC17C24BF00F8012B00F8012B48BFD1
:1007700000F8012B70474FF0000200B51346944675
:100780009646203922BFA0E80C50A0E80C50B1F1E9
:100790002001BFF4F7AF090728BFA0E80C5048BFFD
:1007A0000CC05DF804EB890028BF40F8042B08BF9B
:1007B000704748BF20F8022B11F0804F18BF00F897
:1007C000012B704770477047704700000048704722
:1007D000F0A90020704770477047704738B504464D
:1007E0000A4600206946AFF30080002808BF38BDE4
:1007F00002460099204600F04FF8012038BD012044
:1008000000F07CB8F8B5AFF30080054600200C4638
:10081000102000BF0646A819A0420DD932466946ED
:100820000020AFF30080070008BF00F067F80098D1
:10083000A04218BF0546C419FFF7C8FF0560074668
:10084000F01D20F007004619284600F00AF8B442CF
:1008500008BFF8BDA21B31463868BDE8F84000F07B
:100860001BB800210160C0E90110704710207047DB
:1008700010B500F00DF8006810BD10B5044600F08A
:1008800007F8046010BD000000487047E8A9002088
:1008900000487047E8A90020034640688C460028BD
:1008A00018BF88423CBF03464068F8D31868184414
:1008B000884207D00CF1030020F00700001D411A08
:1008C000521A0146081D0A60FFF7F7BD1FB584B034
:1008D00000200A9C06AB04AA02A90094AFF3008092
:1008E00018B1DDE9020108B010BD0348204000F056
:1008F00040F800200146F6E70000207C10B500F02B
:100900003FF8BDE8104000F02FB870477546FFF77C
:10091000BBFFAE4605006946534620F007008546FA
:1009200018B020B5FFF712FDBDE820404FF00006DB
:100930004FF000074FF000084FF0000B21F00701C7
:10094000AC46ACE8C009ACE8C009ACE8C009ACE80A
:10095000C0098D46704710B50446AFF300802046AD
:10096000BDE81040FFF77DBC002801D000F030B892
:10097000704710B500F04CF8BDE81040FFF7F4BF29
:1009800010B5012805D0002103A000F027F80120B0
:1009900010BD09A1F8E7000053494752544D454D99
:1009A0003A204F7574206F662068656170206D6510
:1009B0006D6F7279000000003A2048656170206D0B
:1009C000656D6F727920636F727275707465640003
:1009D00001491820ABBEFEE72600020070B50546AF
:1009E0000C460A2000E06D1C00F068F835B128784C
:1009F0000028F8D102E0641C00F060F814B12078FF
:100A00000028F8D1BDE870400A2000F057B8000077
:100A100010B5022803D0410103D50DA112E000203A
:100A200010BD010101D50FA10CE0C10001D511A13C
:100A300008E0810001D512A104E0400001D513A116
:100A400000E0002115A0FFF7C9FF012010BD000044
:100A5000496E76616C6964204F7065726174696F6C
:100A60006E000000446976696465204279205A6509
:100A7000726F00004F766572666C6F770000000041
:100A8000556E646572666C6F77000000496E65781C
:100A900061637420526573756C7400005349474656
:100AA00050453A2041726974686D657469632065C8
:100AB0007863657074696F6E3A20000008B5694606
:100AC0008DF800000320ABBE08BD10B52DED028BE4
:100AD000B0EE408AB0EE480A0EF04AFCBDEC028B44
:100AE00010BD10B52DED028BB0EE408AF0EE608A9D
:100AF000F0EE680AB0EE480A0EF0D0FCBDEC028BB6
:100B000010BD10B52DED028BB0EE408AB0EE480A54
:100B1000FFF72EFCBDEC028B10BDF0EE400AF5EEA7
:100B2000C00AF1EE10FA02DDB0EE600A7047B1EED5
:100B3000600AFBE718B19FED020A80ED000A7047DA
:100B40000000000018B1B3EE060A80ED000A7047FD
:100B500070B52DED0C8B84B006460C4615469FED06
:100B6000990AF0EE408A9FED970AB0EE409A9FED09
:100B7000950AF0EE40BA9FED930AF0EE409A9FED91
:100B8000910AB0EE40AA0EB104B11DB904B0BDEC9B
:100B90000C8B70BD8C48FFF7CDFF8C48FFF7D2FF60
:100BA0008A48D0ED000A9FED8A1A60EE810AB0EE05
:100BB000600A00F02DF9F0EE408A28EEA80AF0EE67
:100BC000408A8248D0ED000AB0EE001A60EE810A39
:100BD0009FED7F1A60EE810AB0EE600A00F018F90E
:100BE000B0EE409A29EE090AB0EE409ADFED790A9C
:100BF000B7EE000A00EEA80ADFED770A00EEC90A98
:100C0000DFED760A20EE200A754880ED000A6E4876
:100C100090ED000ADFED730A80EE201AB7EE000AAD
:100C200031EE000A20EE000A6D48D0ED000A80EE99
:100C3000801A6D4880ED001A94ED000AB5EEC00AE6
:100C4000F1EE10FA0DD194ED010AB5EEC00AF1EE05
:100C500010FA06D194ED020AB5EEC00AF1EE10FAD0
:100C600046D09FED580AB0EE408A002001900290D5
:100C70000390D4ED000A60EEA00A94ED011AD4EDC1
:100C8000011A41EE210A94ED021AD4ED021A41EE46
:100C9000210AB0EE600A00F0A9F8B0EE408A94EDA7
:100CA000000A20EE080A8DED010A94ED010A20EEFB
:100CB000080A8DED020A94ED020A20EE080A8DED75
:100CC000030ADDED010AF1EE600AB0EE600AFFF7FB
:100CD000FCFEF0EE409A9DED031AF0EE410A9DED08
:100CE000021AB0EE410AFFF7FCFEB0EE40AA07E0A0
:100CF0009FED340AF0EE409A9FED320AB0EE40AA22
:100D000095ED000AB5EEC00AF1EE10FA0DD195EDA1
:100D1000010AB5EEC00AF1EE10FA06D195ED020A0D
:100D2000B5EEC00AF1EE10FA3CD0B0EE690A00F060
:100D30006FF8B0EE408AB0EE690AFFF7E2FEB0EE5F
:100D400040DAB0EE4A0A00F063F8F0EE40AAB0EEE6
:100D50004A0AFFF7D6FEB0EE40BA28EE2A0AD5EDD1
:100D6000010A20EE200AD5ED000A0DEE200A68EEF9
:100D70000B0A95ED021A00EE810AB0EE40CA95ED1D
:100D8000010A20EE0B0AD5ED020A0AEEE00AF0EEA7
:100D900040CAF0EE6C0AB0EE4C0AFFF7A2FEF0EE8D
:100DA00040BA03E09FED070AF0EE40BAB0EE4A1AEF
:100DB000F0EE690AB0EE6B0A30460FF0CFFC00BFD0
:100DC000E4E60000000000001406002018060020E1
:100DD00035FA8E3CC1BFAD3B9DF8C5362F7C1C411A
:100DE0001C060020506CC24A2006002010B52DEDD4
:100DF000028BB0EE408AB0EE480A0EF0AFFCB7EEC0
:100E0000001AC1EE000AB0EE600ABDEC028B10BD04
:100E100010B52DED028BB0EE408AB0EE480AFFF718
:100E2000E3FABDEC028B10BD2DE9F0412DED028BF4
:100E30009AB00546B0EE408A0E4617469846002006
:100E40001790189019901490159016904DB146B1C6
:100E50003FB1B8F1000F04D0B5EEC08AF1EE10FA40
:100E600005D100201AB0BDEC028BBDE8F08196EDF3
:100E7000000A8DED170A96ED010A8DED180A96ED20
:100E8000020A8DED190A97ED000A8DED140A97ED0F
:100E9000010A8DED150A97ED020A8DED160A17AAC3
:100EA00014A928460EF034FE402104A8FFF763FC85
:100EB00000200090019002900390002417A904A83C
:100EC00014F008F800BF30E004A800EB041090ED27
:100ED000000AD5ED000A20EE200A04A800EB041059
:100EE000D0ED010A95ED011A00EE810A04A800EB8D
:100EF0000410D0ED020A95ED021A00EE810A04A852
:100F000000EB0410D0ED030A95ED031A00EE810A00
:100F100020EE080AF0EE000A80EE201A684600EB88
:100F2000840080ED001A601CC4B2042CCCDB0024C9
:100F300010E005EB840090ED000A684600EB8400A9
:100F4000D0ED000A30EE200A05EB840080ED000AA7
:100F5000601CC4B2042CECDB284613F0C7FD012052
:100F600080E7000010B50A4890ED000A094806F035
:100F70000FFE094880ED010A084890ED000A054877
:100F8000303006F005FE044880ED030A10BD000075
:100F9000F0030020243C00205C420020F4030020E9
:100FA00010B501221021024803F06CF810BD0000BA
:100FB0000000024010B500221021024803F062F840
:100FC00010BD0000000002407047000010B5012273
:100FD0001146024803F056F810BD0000000402401C
:100FE00010B500220121024803F04CF810BD0000AA
:100FF0000004024010B543781B021BB2047823435F
:1010000000EE103AB8EEC01A1C4BD3ED001A21EED8
:10101000211A81ED001AC3781B021BB28478234386
:1010200000EE103AB8EEC01A144BD3ED001A21EEC0
:10103000211A81ED011A43791B021BB20479234363
:1010400000EE103AB8EEC01A0C4BD3ED001A21EEA8
:10105000211A81ED021A037A1B04C47943EA04239E
:101060008479234300EE903AB8EE601ADFED041A5B
:1010700021EE211A82ED001A10BD0000500400205C
:1010800000401C42704710B50446204613F018F883
:1010900010BD10B50446204610F03CFE10BD000007
:1010A0004278120212B203781A4300EE102AF8EEC8
:1010B000C00A144A92ED001A60EE810AC1ED000ADE
:1010C000C278120212B283781A4300EE102AF8EEA8
:1010D000C00A0C4A92ED001A60EE810AC1ED010AC5
:1010E0004279120212B203791A4300EE102AF8EE86
:1010F000C00A044A92ED001A60EE810AC1ED020AAC
:10110000704700005404002010B50024FFF75CFF76
:10111000FFF7B8FF0FF0E2FC10B144F0800402E0EA
:101120000FF042FC04430FF0D1FE10B144F0400434
:1011300002E00FF051FE0443204610BD2DE9FC41B2
:1011400005460E461746002000900190FFF732FF3B
:10115000922000F0D1F806226946122000F0ACF887
:10116000FFF71EFF9DF80100000200B29DF800107D
:1011700040EA010400EE104AB8EEC00A4C48D0ED37
:10118000000A20EE200A86ED000A9DF80300000206
:1011900000B29DF8021040EA010400EE104AB8EED9
:1011A000C00A4348D0ED000A20EE200A86ED010A6D
:1011B0009DF80500000200B29DF8041040EA010409
:1011C00000EE104AB8EEC00A3948D0ED000A20EE11
:1011D000200A86ED020AFFF703FF08226946002075
:1011E00000F06AF8FFF7F2FE9DF800000F2838D1F2
:1011F0009DF80300000200B29DF8021040EA0104CD
:1012000000EE104AB8EEC00A2A48D0ED000A20EEDF
:10121000200A85ED000A9DF80500000200B29DF845
:10122000041040EA010400EE104AB8EEC00A21485A
:10123000D0ED000A20EE200A85ED010A9DF8070096
:10124000000200B29DF8061040EA010400EE104AC8
:10125000B8EEC00A1748D0ED000A20EE200A85ED4E
:10126000020AFFF7A7FEA22000F046F80222694614
:10127000222000F021F8FFF793FE9DF80000C00047
:101280009DF8011040EA6114B4F5806F02DBA4F50B
:10129000006004B200EE104AF8EEC00AB4EE001A84
:1012A000B3EE070A00EE810A87ED000ABDE8FC8173
:1012B000500400205404002070B506460C46154624
:1012C00046F0800000F018F806E0552000F014F811
:1012D0002070641C681EC5B2002DF6D170BD70B5BB
:1012E00004460D4644F0800000F006F8552000F05A
:1012F00003F8287070BD000001B582B04FF47A7019
:10130000012301AA02A90090024804F08BFD9DF878
:1013100004000EBD900D002010B502461378DB00CE
:10132000547843EA6410B0F5806F02DBA0F50063E7
:1013300018B200EE100AF8EEC00AB4EE001AB3EECE
:10134000070A00EE810A81ED000A10BD70B505465E
:101350000C462846FFF7D0FF2046FFF7CDFF70BDB3
:1013600000BFFEE710B5024801F0FFFE10BD00000F
:1013700024060020F8B507460C4615461E464FF4D5
:1013800000700D49086000208860C860082008616E
:10139000380A0A4908704F70200A8870CC70280AF1
:1013A00008714D71300A8871CE716B460A46024948
:1013B000034801F00DFDF8BD9035002079020020B2
:1013C0002406002010B5024801F0CFFE10BD000039
:1013D0004C060020F8B507460C4615461E4640F25E
:1013E000FF100D49086000208860C860082008616F
:1013F000380A0A4908704F70200A8870CC70280A91
:1014000008714D71300A8871CE716B460A460249E7
:10141000034801F0DDFCF8BD7835002071020020A2
:1014200024060020F8B507460C4615461E4640F235
:10143000FF100D49086000208860C860082008611E
:10144000380A0A4908704F70200A8870CC70280A40
:1014500008714D71300A8871CE716B460A46024997
:10146000034801F0B5FCF8BD78350020710200207A
:101470004C0600200FB408B54FF4E260094908603B
:1014800000208860C8600420086107480499016052
:101490006B4602460349054801F09AFC01B05DF82D
:1014A00014FB000078350020710200204C0600205B
:1014B0000FB408B540F211700A4908600020886036
:1014C000C8600420086108480599016006994160D8
:1014D0006B4602460349054801F07AFC01B05DF80D
:1014E00014FB000078350020710200204C0600201B
:1014F0000FB408B540F212700A49086000208860F5
:10150000C860082008610848029901600399416099
:101510006B4602460349054801F05AFC01B05DF8EC
:1015200014FB000078350020710200204C060020DA
:101530000346042B15D007DC7BB1012B0ED0022B08
:101540000DD0032B12D10BE0202B0BD0212B0AD076
:10155000222B09D0232B09D107E008E007E006E0A1
:1015600005E004E003E002E001E000E000BF00BFAE
:10157000002070470020704710B50022044905483C
:101580000BF00DFF044903480BF003FF002010BDD2
:10159000D0230020C8120020D01B002070B50546C3
:1015A0000C46294609482268FFF744F80849206894
:1015B0000860064907480DF0CBFD294606480BF0A8
:1015C000E8FE05480BF0C4FE002070BD6C1B002037
:1015D0007C0000200C2D0020C81200202DE9F041D5
:1015E00004460D4600260A48D0F89072D7F8140237
:1015F00010B10120BDE8F0812A46214604480BF0D5
:10160000CEFE03480BF046FF06463046F2E70000E8
:10161000C812002008B500BF14F06AFC00900AF060
:10162000FFFD6421684613F0F5FEF5E72DE9FF5F45
:10163000054616461F46DDF84CB0DDE9108ADDF898
:1016400038902C46002004E00199095C2154411C8B
:10165000C8B20328F8DB14F8030F66F30200207009
:10166000207820F0380038302070208867F3891007
:101670002080607869F385006070B4F801100F98DD
:1016800060F38E11A4F80110608868F3CF106080B9
:10169000A0886AF30900A080B4F80510129860F3DE
:1016A0008C01A4F80510E0886BF34F10E0802089CE
:1016B0006FF3090020810021B4F8090061F38C0068
:1016C000A4F80900608961F34F106081E41E1322C1
:1016D000064905F10F00FEF7ADFF424605F10F0088
:1016E0001499FEF7A7FFBDE8FF9F0000F20100205C
:1016F000002109E09FED0E0A00F1080202EB8102D1
:1017000082ED000A4A1C91B242888A42F2DC002132
:1017100001809FED070A80ED010A9FED050A80ED2B
:10172000660A9FED030A80ED670A80F8A0117047F2
:101730000000000010B5A5201D4908706F20A1F819
:1017400001000020C8701B480A6802600979017115
:1017500005210FF0D1F840F201301549A1F805003C
:101760004FF48270A1F80700134890F84A1010480F
:10177000A0F809101048B0F8BA100D48A0F80B10E6
:1017800000F086FE0A48B0F80100821C0849491D95
:101790000848401DFEF74EFF782106480FF094F8E8
:1017A000C82378220349054805F0C8FA10BD000097
:1017B00060310020942F0020D62E00202810002019
:1017C00010B521480078072802DB00201E49087068
:1017D000A5201E4908703320A1F801000020C87020
:1017E0001B480A6802600979017105210FF084F82D
:1017F00040F201301549A1F805004FF48870A1F8B6
:101800000700144890F84A101048A0F80910114831
:10181000B0F8BA100D48A0F80B1000F047FE0B48C6
:10182000B0F80100821C0949491D0948401DFEF716
:1018300001FF3C2106480FF047F8C8233C22044929
:10184000054805F07BFA10BD10020020243100206D
:10185000942F0020D62E00202810002010B5A5209F
:101860001F4908701520A1F801000020C8701D480C
:101870000A6802600979017105210FF03DF840F214
:1018800001301749A1F8050040F20110A1F8070046
:10189000154890F84A101248A0F809101248B0F8FC
:1018A000BA100F48A0F80B1010480068104991EDCD
:1018B000000A13F07BFA0A48B0F80100821C0849BC
:1018C000491D0848401DFEF7B5FE1E2105480EF0D3
:1018D000FBFFC8231E220349064805F02FFA10BD5E
:1018E00016320020942F0020D62E0020280200203F
:1018F0002C0200202810002010B5024801F0DCFF67
:1019000010BD00000812002010B5FE48C06C006831
:10191000FD49884276D9FC4854380068F949C96CB9
:101920000968FA4A914201D1202169E0F549C96C60
:101930000968F54A483A914201D1202160E0F14915
:10194000C96C0968F14A6032914201D1202157E007
:10195000EC49C96C0968EC4A1832914201D1202146
:101960004EE0E849C96C0968E84A1832914201D151
:10197000C91445E0E349C96C0968E34A303A914229
:1019800001D1C9143CE0DF49C96C0968DF4A7832EB
:10199000914201D1C91433E0DA49C96C0968DA4AC5
:1019A0003032914201D1C9142AE0D649C96C096884
:1019B000D64A3032914202D14FF4001120E0D14991
:1019C000C96C0968D04A183A914202D14FF400110B
:1019D00016E0CC49C96C0968CC4A9032914202D1D8
:1019E0004FF400110CE0C749C96C0968C64A483277
:1019F000914203D14FF4001102E003E04FF0006187
:101A0000084070E1BF48C06C0068C049A8318842F6
:101A100076D9BD4858380068BA49C96C0968BB4ACC
:101A2000914201D1202169E0B649C96C0968B64AE2
:101A3000483A914201D1202160E0B249C96C09685D
:101A4000B24A6032914201D1202157E0AD49C96CC0
:101A50000968AD4A1832914201D120214EE0A949CE
:101A6000C96C0968A94A1832914201D1C91445E0EC
:101A7000A449C96C0968A44A303A914201D1C914F9
:101A80003CE0A049C96C0968A04A7832914201D172
:101A9000C91433E09B49C96C09689B4A30329142B2
:101AA00001D1C9142AE09749C96C0968974A3032B4
:101AB000914202D14FF4001120E09249C96C0968AB
:101AC000914A183A914202D14FF4001116E08D4923
:101AD000C96C09688D4A9032914202D14FF40011CD
:101AE0000CE08849C96C0968874A4832914203D1A1
:101AF0004FF4001102E003E04FF000610840F2E013
:101B00008048C06C006881494831884276D97F4856
:101B1000103840687B49C96C09687C4A914201D100
:101B2000202169E07749C96C0968774A483A9142AF
:101B300001D1202160E07349C96C0968734A6032A1
:101B4000914201D1202157E06E49C96C09686E4A63
:101B50001832914201D120214EE06A49C96C0968CE
:101B60006A4A1832914201D1C91445E06549C96CED
:101B70000968654A303A914201D1C9143CE0614993
:101B8000C96C0968614A7832914201D1C91433E0C5
:101B90005C49C96C09685C4A3032914201D1C91470
:101BA0002AE05849C96C0968584A3032914202D13A
:101BB0004FF4001120E05349C96C0968524A183AA1
:101BC000914202D14FF4001116E04E49C96C0968E8
:101BD0004E4A9032914202D14FF400110CE0494933
:101BE000C96C0968484A4832914203D14FF4001148
:101BF00002E003E04FF00061084074E04348103811
:101C000000684049C96C0968404A914201D12021CD
:101C100068E03C49C96C09683B4A483A914201D1A5
:101C200020215FE03749C96C0968384A6032914227
:101C300001D1202156E03349C96C0968324A183273
:101C4000914201D120214DE02E49C96C09682F4AEB
:101C50001832914201D1C91444E02A49C96C09687B
:101C6000294A303A914201D1C9143BE02549C96C57
:101C70000968264A7832914201D1C91432E02149DB
:101C8000C96C0968204A3032914201D1C91429E057
:101C90001C49C96C09681D4A3032914202D14FF487
:101CA00000111FE01749C96C0968174A183A914298
:101CB00002D14FF4001115E01249C96C0968134AAA
:101CC0009032914202D14FF400110BE00D49C96CE2
:101CD00009680D4A4832914202D14FF4001101E0E7
:101CE0004FF00061084000286FD00648C06C0068C3
:101CF000054988427BD90348C06C00680349884283
:101D000008D105E0900D00205864024010600240A8
:101D1000202068E0FE48C06C0068FE49884201D17E
:101D2000202060E0FA48C06C0068FB49884201D17D
:101D3000202058E0F648C06C0068F64960318842BF
:101D400001D120204FE0F248C06C0068F2494839C8
:101D5000884201D1C01446E0ED48C06C0068ED49EE
:101D60001831884201D1C0143DE0E948C06C0068D8
:101D7000E9491831884201D1C01434E0E448C06C0C
:101D80000068E4497831884201D1C0142BE0E04872
:101D9000C06C0068E0493039884202D14FF400102D
:101DA00021E0DB48C06C0068DA493031884202D15A
:101DB0004FF4001017E0D648C06C0068D6493031A7
:101DC000884204D14FF400100DE0DFE10FE0D0486D
:101DD000C06C0068CF499031884202D14FF40010A6
:101DE00001E04FF00060CB49091F08606AE1C84874
:101DF000C06C0068C8494831884274D9C448C06C76
:101E00000068C5496039884201D1202066E0C04899
:101E1000C06C0068BF49884201D120205EE0BC4808
:101E2000C06C0068BC49884201D1202056E0B84807
:101E3000C06C0068B7496031884201D120204DE074
:101E4000B348C06C0068B4494839884201D1C01415
:101E500044E0AF48C06C0068AE491831884201D1F7
:101E6000C0143BE0AA48C06C0068AB4918318842F6
:101E700001D1C01432E0A648C06C0068A549783191
:101E8000884201D1C01429E0A148C06C0068A24971
:101E90003039884202D14FF400101FE09C48C06CDA
:101EA00000689C493031884202D14FF4001015E09F
:101EB0009748C06C006898493031884202D14FF48D
:101EC00000100BE09248C06C006892499031884243
:101ED00002D14FF4001001E04FF000608D49083945
:101EE0000860EFE0FFE78A48C06C00688A4918394B
:101EF000884274D98648C06C006887496039884236
:101F000001D1202066E08248C06C00688149884287
:101F100001D120205EE07E48C06C00687E49884286
:101F200001D1202056E07A48C06C006879496031C0
:101F3000884201D120204DE07548C06C0068764988
:101F40004839884201D1C01444E07148C06C00682F
:101F500070491831884201D1C0143BE06C48C06C14
:101F600000686D491831884201D1C01432E06848D8
:101F7000C06C006867497831884201D1C01429E0FB
:101F80006348C06C006864493039884202D14FF41C
:101F900000101FE05E48C06C00685E493031884226
:101FA00002D14FF4001015E05948C06C00685A493E
:101FB0003031884202D14FF400100BE05448C06C1D
:101FC000006854499031884202D14FF4001001E07A
:101FD0004FF0006050497039C86073E0FFE74C482B
:101FE000C06C00684C496039884201D1202066E00D
:101FF0004748C06C00684749884201D120205EE014
:102000004348C06C00684449884201D1202056E012
:102010003F48C06C00683F496031884201D12020B0
:102020004DE03B48C06C00683B494839884201D1CB
:10203000C01444E03648C06C006836491831884204
:1020400001D1C0143BE03248C06C006832491831FD
:10205000884201D1C01432E02D48C06C00682D497F
:102060007831884201D1C01429E02948C06C006849
:1020700029493039884202D14FF400101FE024482A
:10208000C06C006823493031884202D14FF40010FF
:1020900015E01F48C06C00681F493031884202D1EA
:1020A0004FF400100BE01A48C06C006819499031D9
:1020B000884202D14FF4001001E04FF00060164951
:1020C000703988601548007800F0020078B1134834
:1020D000007820F00200114908700846007840F0AE
:1020E00004000870012211460D4801F0CBFF0D4895
:1020F000007800F00200E0B10A48007820F0020009
:10210000084908700846007840F0040008700BE0A9
:10211000900D00201064024070600240A90200206F
:1021200000040240AA02002001221021184801F0F8
:10213000A9FF1848007800F0020078B1154800782F
:1021400020F00200134908700846007840F00400AF
:102150000870012210210E4801F094FF11F074FC68
:102160000D48007800F0040080B10B48007820F0A2
:102170000400094908700846007840F0080008701B
:102180000648006840F001000449086010BD0000E6
:1021900000000240AB020020A9020020103C0140D8
:1021A00010B5024801F088FB10BD0000E8100020C7
:1021B00010B5024801F080FB10BD0000681200203D
:1021C00010B5024801F078FB10BD00004811002056
:1021D00001680A4BCAB2103AA3FB02321209084B3B
:1021E0009B5CC365032A04D96FF30901091D81654E
:1021F00002E06FF309018165806D7047ABAAAAAA5E
:102200008C7C0108014600208A6A8B69002B0FD064
:10221000B3F5005F1DD08AB3012A30D0022A2ED038
:10222000032A04D1C96A11F0807F00D001207047D1
:102230001AB1012A07D0022AF9D1C96A11F0807FA8
:10224000F5D001207047C96AB1F1C07FFAD10120F1
:1022500070475AB1012A0BD0022A07D0032AF7D1BE
:10226000C96AB1F1C07FF3D10120704701207047E6
:10227000C96A11F0807FFAD001207047FFE7012082
:10228000704710B4D0F800C0DCF8004024F480247B
:10229000CCF80040D0F800C0CCF804308368402B64
:1022A00005D0036899600068C26010BC704703687D
:1022B0009A600068C16010BC70477047734890F81E
:1022C0004A000A2871DA01207049A1F8A000022111
:1022D0006E48A0F8A2100321A0F8A4100421A0F8D1
:1022E000A6100521A0F8A8100621A0F8AA10072121
:1022F000A0F8AC1040F20111A0F8AE10491CA0F8F3
:10230000B010491CA0F8B210491CA0F8B410491C28
:10231000A0F8B610491CA0F8B81090F84A0001289F
:1023200006D15A48B0F8AE005849A1F8BA00ACE05E
:10233000564890F84A00022806D15448B0F8B00038
:102340005249A1F8BA00A0E0504890F84A0003288A
:1023500006D14E48B0F8B2004C49A1F8BA0094E05A
:102360004A4890F84A00042806D14848B0F8B4001A
:102370004649A1F8BA0088E0444890F84A00052888
:1023800006D14248B0F8B6004049A1F8BA007CE056
:102390003E4890F84A00062877D13C48B0F8B8008B
:1023A0003A49A1F8BA0070E0FFE765203749A1F883
:1023B000A00066213548A0F8A2106721A0F8A4105B
:1023C0006821A0F8A6106921A0F8A8106A21A0F839
:1023D000AA106B21A0F8AC1040F26511A0F8AE1065
:1023E000491CA0F8B010491CA0F8B210491CA0F874
:1023F000B410491CA0F8B610491CA0F8B81090F809
:102400004A00652806D12148B0F8AE001F49A1F85E
:10241000BA003AE01D4890F84A00662806D11B48E9
:10242000B0F8B0001949A1F8BA002EE0174890F8AA
:102430004A00672806D11548B0F8B2001349A1F840
:10244000BA0022E0114890F84A00682806D10F48E7
:10245000B0F8B4000D49A1F8BA0016E00B4890F8A6
:102460004A00692806D10948B0F8B6000749A1F822
:10247000BA000AE0054890F84A006A2805D10348E6
:10248000B0F8B8000149A1F8BA007047D62E002074
:1024900010B50448007812F025FC034800780EF0CF
:1024A0003DFA10BD1A0200201B02002010B588B0B2
:1024B00071480078D8B97148FEF79DF804466F4816
:1024C00040F22A3132220223CDE90332CDE9051050
:1024D000142000210B460122CDE90104009168A1DE
:1024E0006848FFF7A3F8012063490870C1E062481B
:1024F000007801281BD16448FEF77DF80446624845
:102500004FF4347132220223CDE90332CDE90510B4
:10251000142000210B460122CDE9010400915BA1AA
:102520005848FFF783F8022053490870A1E0524849
:10253000007802281BD15648FEF75DF8044654483F
:1025400040F2762132220223CDE90332CDE9051093
:10255000142000210B460122CDE9010400914DA178
:102560004848FFF763F803204349087081E0424878
:10257000007803281BD14848FEF73DF8044646483A
:102580004FF4077132220223CDE90332CDE9051061
:10259000142000210B460122CDE9010400913FA146
:1025A0003848FFF743F804203349087061E03248A7
:1025B000007804281CD13A48FEF71DF80446384834
:1025C00040F22A314FF4C8620223CDE90332CDE94B
:1025D0000510142000210B460122CDE901040091D1
:1025E00030A12848FFF722F805202349087040E071
:1025F0002148007805281CD12B48FDF7FCFF044634
:1026000029484FF434714FF4D7620223CDE90332E5
:10261000CDE905100A2000210B460122CDE9010475
:10262000009122A11748FFF701F80620124908700F
:102630001FE01148007806281BD11D48FDF7DBFF7D
:1026400004461B4840F276214FF4BE620223CDE9D6
:102650000332CDE90510142000210B460122CDE9FB
:102660000104009113A10748FEF7E0FF072002498B
:10267000087008B010BD00001002002020010020EA
:10268000434C3100313100203E010020434C3200E8
:102690005C010020434C33007A010020434C34009D
:1026A00098010020434C3500B6010020434C360011
:1026B000D4010020434C370010B5012001F0C8FBC5
:1026C00010BD10B5082001F0C3FB10BD10B51020DF
:1026D00001F0BEFB10BD10B5202001F0B9FB10BD0C
:1026E000704700000022002905D001291AD00229D4
:1026F0001BD04FF440720E490B6823F440730B60FB
:102700000B681A430A600A6822F0F8020A600A6835
:10271000022343EAC00010430860086840F4803098
:10272000086070474FF48072E5E74FF40072E2E70B
:10273000103C02401448016811F4007F0FD001687A
:1027400021F400710160016841F4006101600168D9
:1027500021F400610160016841F4007101600168C9
:1027600011F4806F0FD0016821F48061016001686D
:1027700041F480510160016821F4805101600168D9
:1027800041F4806101607047003C024008490A68DA
:1027900022F440720A600A6842F004020A600A6881
:1027A0004FF4803343EA0020104308607047000074
:1027B000103C0240064A136823F440731360136808
:1027C0001360136843F00103136001707047000049
:1027D000103C02400A49D1F800C02CF4407CC1F8FA
:1027E00000C0D1F800C04CF4407CC1F800C0D1F862
:1027F00000C04CF0010CC1F800C00260436070479B
:10280000103C0240074A136823F4407313601368B6
:1028100043F480731360136843F001031360018075
:1028200070470000103C0240074A136823F44073CD
:102830001360136843F400731360136843F00103DB
:102840001360016070470000103C02401A4908689C
:1028500010F0100F194805D0C26942F01002C26191
:1028600010220A600A6812F0200F05D0C26942F0F7
:102870000802C26120220A600A6812F0400F05D0E7
:10288000C26942F00402C26140220A600A6812F082
:10289000800F05D0C26942F00202C26180220A6044
:1028A0000A6812F0020F05D0C26942F02002C2612C
:1028B00002200860704700000C3C0240884700205E
:1028C00070B5044614490020C86101F0E3FB0646D8
:1028D000124D286810F4803F0ED0B4F1FF3F07D0AE
:1028E00024B101F0D7FB801BA04201D9032070BDA9
:1028F000286810F4803FF0D1286810F0010F01D053
:1029000001202860286810F0F20F03D0FFF79EFF27
:10291000012070BD002070BD884700200C3C0240A3
:102920002DE9F04FDDE90F9E09AC94E8F010DDF8D9
:1029300038804FF0000A07E011F80AB000F80AB03A
:102940000AF1010B0BF0FF0ABAF1030FF4DB90F868
:1029500003A062F3020A80F803A090F803A063F3D7
:10296000C50A80F803A0B0F803A064F3891AA0F8A0
:1029700003A090F804A065F3850A80F804A0B0F8DD
:1029800004A066F38E1AA0F804A0B0F805A067F3BF
:10299000CF1AA0F805A0B0F807A06CF3090AA0F8B8
:1029A00007A0B0F808A068F38C0AA0F808A0B0F857
:1029B00009A069F34F1AA0F809A0B0F80BA06EF3B4
:1029C000090AA0F80BA0B0F80CB0DDF844A06AF337
:1029D0008C0BA0F80CB0B0F80DB0DDF848A06AF38D
:1029E0004F1BA0F80DB0BDE8F08F000070B52DEDC5
:1029F000028B044604F0E2FEB0EE408A04F0E6FEEC
:102A0000C5B20F2D10D19FED702AF2EE0E1A04F50B
:102A1000E870B2EE0D1AF2EE0B0AB0EE480A09F0B9
:102A2000C5FB09F0E5FE24E0122D10D19FED662ACA
:102A3000F2EE0E1A04F5EA709FED641ADFED640AF7
:102A4000B0EE480A09F0B2FB09F026FF11E01E2D96
:102A50000FD19FED602AF3EE091A04F5EC709FED9B
:102A60005E1ADFED5E0AB0EE480A09F09FFB09F03E
:102A700067FF0F2D04D141F25C20A4F8E80111E0BA
:102A8000122D04D141F27C50A4F8E8010AE01E2D79
:102A900004D141F6B050A4F8E80103E041F25C2013
:102AA000A4F8E8012068807A022810D19FED4C0A32
:102AB00084ED5F0A9FED4A0A84ED470A9FED480ABC
:102AC00084ED600A9FED460A84ED480A45E02068DF
:102AD000C07A022814D19FED420A84ED5F0A9FED6F
:102AE000400A84ED470A9FED3E0A84ED600A9FED9F
:102AF0003C0A84ED480A00203A49A1F80C0110E094
:102B0000B4F9E80100EE100AB8EEC00A84ED5F0ADD
:102B1000B4F9E801404200EE100AB8EEC00A84EDB4
:102B2000470A94ED601AF0EE410A94ED5F1AB0EE98
:102B3000410AB2EE041A06F059F984ED600A94EDE8
:102B4000481AF0EE410A94ED471AB0EE410AB2EE8F
:102B5000041A06F04BF984ED480A94ED601AF0EE81
:102B6000410AD4F87001B0F9020001EE100AB8EE83
:102B7000C11AB0EE410A04F5C47006F00FF8BDEEBC
:102B8000C00A10EE100A01B24FF4C270015394ED66
:102B9000481AF0EE410AD4F81001B0F9020001EE33
:102BA000100AB8EEC11AB0EE410A04F5947005F0AF
:102BB000F5FFBDEEC00A10EE100A01B24FF492709C
:102BC0000153BDEC028B70BD00000C4200008C4133
:102BD00000008441000048420000EC410000E44154
:102BE000000000009842002010B504462348D0F8A9
:102BF0000B0000EE100AB5EEC00AF1EE10FA08D193
:102C000094ED880A84ED890A94ED360A84ED370A3A
:102C100033E01A4890F8A200012809D1184890ED35
:102C2000030A84ED890A90ED010A84ED370A24E055
:102C30000CF0ACF848B1124890ED010A84ED370A67
:102C400090ED030A84ED890A07E094ED880A84ED8B
:102C5000370A94ED360A84ED890A0021074880F886
:102C6000A21008480088401E0649088008460088CF
:102C700018B90121014880F8A21010BD0C2D0020C8
:102C80005C420020C403002010B52DED028B0446E9
:102C9000B0EE408A14B9BDEC028B10BD94ED340A3D
:102CA000094880ED000AD0ED000A70EE880AB0EE07
:102CB000600A9FED061ADFED060A11F063F984ED54
:102CC000340A00BFE7E70000CC030020DB0F4940D7
:102CD000DB0F49C0F0EE400A4A88824200DC887867
:102CE00091ED010A0B8801F1080202EB830292EDDB
:102CF000001A30EE410A81ED010A91ED010A30EE31
:102D0000200A81ED010A0B8801F1080202EB83021F
:102D1000C2ED000A0A88521C0A8091F8A0215AB913
:102D200091ED011A0A8800EE102AB8EE400AC1EEB1
:102D3000001AC1ED661A0DE091F8A021012A09D10F
:102D400091ED011A00EE100AB8EE400AC1EE001A29
:102D5000C1ED661A0A88824204DB00220A80012241
:102D600081F8A02191ED660A30EEC00A81ED670A74
:102D700091ED670A7047000070B50A480468001DAD
:102D80000568001D0668344454B1082206492046EF
:102D900004F0AAFC042204491031284604F0A4FCE3
:102DA00070BD0000107AFF1F6200002090F8202004
:102DB000012A07D0022A05D0416A41F480214162EC
:102DC000012070470068426911434161002070474B
:102DD00070B490F82040D0F800C0DCF808C0012C96
:102DE00008D0022C06D0416A41F48021416270BCB7
:102DF000012070470CF080640CF000652C4302D178
:102E00001CF0805F5FD0CCF3016CBCF1020F06D9DF
:102E1000416A41F40001416270BC01207047012405
:102E200004FA0CF41C608B684FF4C0749BB1CD683D
:102E300004EB0C162B434D6843EAC5030568AB5100
:102E40004FF4C273066803EB0C130D69F550097D4E
:102E5000012909D00DE00D88CB6804EB0C1643EA7C
:102E600045530568AB51EBE70168CD5845F48075D3
:102E7000CD501179D379557941EA036193791B04D7
:102E800043EA052319434FF4C675036805EB0C1597
:102E900059511178D37841EA0361937852781B0431
:102EA00043EA022211434FF4C473026803EB0C138C
:102EB000D150016804EB0C100A5842F001020A508C
:102EC00070BC00207047416A41F40011416270BC3F
:102ED0000120704790F82020012A07D0022A05D04F
:102EE000416A41F480214162012070474248D0F894
:102EF000002242F00102C0F80022D0F8002222F4A1
:102F00007C52C0F80022D0F800224B6A42EA032229
:102F1000C0F800220A7D012302F01F0203FA02F228
:102F2000D0F81C329343C0F81C32CB69D3B9D0F827
:102F30000C329343C0F80C32B1F80CC04B686CF300
:102F40001F43D1F814C000EBCC0CCCF84032B1F8E0
:102F500008C00B686CF31F43D1F814C000EBCC0C15
:102F6000CCF84432CB69012B1AD1D0F80C32134380
:102F7000C0F80C32B1F800C04B686CF31F43D1F8B5
:102F800014C000EBCC0CCCF84032B1F808C0CB68D0
:102F90006CF31F43D1F814C000EBCC0CCCF84432D6
:102FA0008B697BB1D0F804321343C0F804320B694B
:102FB00073B1D0F814321343C0F81432096A0129EE
:102FC0000CD010E0D0F804329343C0F80432EEE79E
:102FD000D0F814329343C0F81432EFE7D0F81C1243
:102FE0001143C0F81C12D0F8001221F00101C0F802
:102FF000001200207047000000640040704710B4C9
:1030000090F820C0BCF1010F09D0BCF1020F06D02E
:10301000416A41F48021416210BC0120704739B1FE
:10302000D0F800C0DCF810C01CF0030F7DD006E023
:10303000D0F800C0DCF80CC01CF0030F7BD04FF4BC
:10304000D87C04680CEB011C54F80C4004F0040418
:103050009460002C7DD0046854F80C40E40854605F
:10306000046854F80CC0CCF3400CC2F80CC04FF408
:10307000DA7C04680CEB011C54F80C4004F00F04DB
:103080001461046854F80C40C4F307249461046884
:1030900054F80CC04FEA1C4CC2F814C04FF4DC7258
:1030A000D0F800C002EB01125CF802C083F800C047
:1030B000D0F800C05CF802C04FEA1C2C83F801C0B5
:1030C000D0F800C05CF802C04FEA1C4C83F802C084
:1030D000D0F800C05CF80220120EDA704FF4DE72F5
:1030E000D0F800C002EB01125CF802C083F804C003
:1030F000D0F800C05CF802C04FEA1C2C83F805C071
:10310000D0F800C05CF802C04FEA1C4C83F806C03F
:10311000D0F800C05CF80220120EDA71F9B1006834
:10312000016941F02001016102E00BE003E010E0E1
:1031300010BC00207047416A41F40011416210BC8C
:1031400001207047416A41F40011416210BC012026
:103150007047046854F80C40640D146080E7006800
:10316000C16841F02001C160DEE72DE9F05F05464E
:10317000002428684669D0F804908768D0F80CA02D
:10318000D0F810B0D0F8188016F0010F54D017F016
:10319000010F17D00121816017F0020F03D02846DC
:1031A00000F084FB0EE017F0040F02D04FF400642F
:1031B00008E017F0080F02D04FF4805402E02846D0
:1031C00000F073FB17F4807F19D029684FF48070EA
:1031D000886017F4007F03D0284600F069FB0EE0FA
:1031E00017F4806F02D044F4005408E017F4006F25
:1031F00002D044F4804402E0284600F058FB17F463
:10320000803F19D029684FF48030886017F4003F60
:1032100003D0284600F04EFB0EE017F4802F02D0BA
:1032200044F4004408E017F4002F02D044F4803442
:1032300002E0284600F03DFB16F0080F07D01AF018
:10324000100F04D044F4007429681020C86016F0F0
:10325000040F4FF0080707D01AF0080F04D02868B1
:10326000C760284600F000FA16F0020F07D0286861
:10327000C06810F0030F02D0284600F0F7F916F0EE
:10328000400F07D01BF0100F04D044F4806429686D
:103290001020086116F0200F07D01BF0080F04D093
:1032A00028680761284600F0CBFA16F0100F07D007
:1032B0002868006910F0030F02D0284600F0C1FA18
:1032C00016F4003F08D019F0100F05D0296810201F
:1032D0004860284600F0B6FA16F4803F07D019F08F
:1032E000080F04D028684760284600F0E4FA16F476
:1032F000004F4AD019F0040F44D016F4807F04D058
:1033000018F0010F01D044F0010416F4007F04D03E
:1033100018F0020F01D044F0020416F4806F04D0BC
:1033200018F0040F01D044F0040416F4006F29D003
:1033300018F0700F26D008F07000402815D006DC79
:10334000102809D020280AD0302816D10AE05028A9
:103350000ED0602811D10EE044F008040DE044F0D6
:1033600010040AE044F0200407E044F0400404E0C4
:1033700044F0800401E044F480742868816921F0FD
:1033800070018161296804204860002C05D0686ABA
:10339000204368622846FFF731FEBDE8F09F70B514
:1033A0000446002C03D094F8200010B104E0012062
:1033B00070BD204600F0A8F82068016821F00201E5
:1033C000016000F067FE0546206840684FF0050682
:1033D00010F0020F11D000F05DFE401B0A2807D943
:1033E000606A40F40030606284F82060012070BDA3
:1033F0002068406810F0020FEDD12068016841F0AC
:103400000101016000F046FE05462068406810F0AA
:10341000010F11D100F03EFE401B0A2807D9606A57
:1034200040F40030606284F82060012070BD2068A4
:10343000406810F0010FEDD0207E01283FD02068B9
:10344000016821F080010160607E01283DD0206884
:10345000016821F040010160A07E01283BD0206876
:10346000016821F020010160E07E012839D0206848
:10347000016841F010010160207F012837D02068E9
:10348000016821F008010160607F012835D02068C3
:10349000016821F004010160E168A06862690843E5
:1034A0002169114308436168491E08432168C861C6
:1034B00000206062012084F82000002070BD206898
:1034C000016841F080010160BEE72068016841F0B9
:1034D00040010160C0E72068016841F020010160FF
:1034E000C2E72068016821F010010160C4E720688C
:1034F000016841F008010160C6E72068016841F0F9
:1035000004010160C8E7000010B586B0044614212C
:1035100001A8FDF730F94E492068884241D14D4855
:103520000068401C4B4908600846006801280FD11C
:1035300000BF002000904848006840F000704649F5
:1035400008600846006800F00070009000BF00BFEF
:1035500000BF0020009040481038006840F008008C
:103560003D49103908600846006800F008000090E6
:1035700000BF00BF032001900220029000200390B2
:10358000032004900920059001A9344800F06CFC48
:1035900000220621142001F06BF9142001F05AF9E1
:1035A00054E02F492068884250D100BF002000908D
:1035B0002948006840F08060274908600846006894
:1035C00000F08060009000BF00BF22480068401CEF
:1035D000204908600846006801280FD100BF00207C
:1035E00000901D48006840F000701B4908600846C4
:1035F000006800F00070009000BF00BF00BF002016
:10360000009015481038006840F002001249103947
:1036100008600846006800F00200009000BF00BF8C
:10362000602001900220029000200390032004906B
:103630000920059001A90B4800F016FC0022062184
:10364000402001F015F9402001F004F906B010BD4A
:10365000006400400000002040380240000C02409E
:1036600000680040000402407047000010B52DEDD6
:10367000048B8AB0044601AB03AA00212046FFF761
:10368000BEFC0398A0F2012007287DD2DFE800F0FD
:103690000405060708090A0000BF00BF00BF00BFFD
:1036A00000BF00BF0398401E6149087008460078BB
:1036B00000EB40005F4931F8200000B25C49097816
:1036C00001EB41015B4A02EB810108819DF8050095
:1036D0009DF8041040EA01205549097801EB4101A9
:1036E00022F821009DF807009DF8061040EA01200D
:1036F00000B24F49097801EB410102EB810148809A
:103700009DF809009DF8081040EA012000B24849E0
:10371000097801EB410102EB810188809DF80A00E4
:103720004349097801EB410102EB8101887140496D
:10373000097801EB410132F821103D4A127802EB81
:1037400042023C4B03EB8202B2F90820881A13F0C4
:1037500037F841EC190BB0EE490AF0EE690A0BF0AC
:10376000F3FFB0EE408AF0EE608A9FED330B53EC2E
:10377000102B51EC180B13F022FA52D22C4800787F
:1037800000EB40002B4900E04CE031F8200041F60E
:10379000641188421DDB2648007800EB4000254973
:1037A00001EB8000B0F90800B0F57A7F11DC204809
:1037B000007800EB400001EB80004089401C00B223
:1037C0001B49097801EB41011A4A02EB810148814A
:1037D00027E01748007800EB4000164931F8200038
:1037E000B0F57A7F1DDC1248007800EB400001EB59
:1037F0008000B0F9080041F66411884211DB0C48E2
:10380000007800EB40000B4901EB80004089401E2E
:1038100000B20749097801EB4101064A02EB810138
:10382000488100E000BF00BF0AB0BDEC048B10BDB2
:103830008102002024350020000000000000B0407C
:1038400070477047704770B5044694F8200001280F
:1038500005D0606A40F400206062012070BD022043
:1038600084F820002068016821F00101016000F067
:1038700011FC05462068406810F0010F12D000F0DE
:1038800009FC401B0A2808D9606A40F400306062D5
:10389000052084F82000012070BD2068406810F0E9
:1038A000010FECD10020606270BD70477047704717
:1038B00070477047704770472DE9F84304464FF052
:1038C0000008CDF8008076484FF416510068B0FB30
:1038D000F1F7A56D2E6894F85C00082101FA00F05C
:1038E000304211D02068026812F0040F0CD0026838
:1038F00022F00402026094F85C0001FA00F0A86073
:10390000606D40F00100606594F85C004FF00109C3
:1039100009FA00F0304209D02168496911F0800F9E
:1039200004D0A860606D40F00200606594F85C10FF
:1039300004208840304209D02168096811F0020F44
:1039400004D0A860606D40F00400606594F85C10DD
:1039500010208840304224D02168096811F0080FF7
:103960001FD0A8602068016811F4802F0DD0006876
:1039700010F4002F04D0A16C99B12046884710E0C4
:10398000216C71B1204688470BE0016811F4807FFB
:1039900003D1016821F008010160216C09B12046C2
:1039A000884794F85C1020208840304251D021682C
:1039B000096811F0100F4CD0A86094F83500052864
:1039C0000DD02068016811F4802F32D0006810F407
:1039D000002F29D0E16B59B32046884739E0206891
:1039E000016821F0160101602068416921F0800121
:1039F0004161206C08B9A06C20B12068016821F0F9
:103A00000801016094F85C003F2101FA00F0A86011
:103A100084F8348084F83590216D00293ED001B0BF
:103A20002046BDE8F0430847616C09B1204688474D
:103A30000FE0016811F4807F07D1016821F01001C7
:103A4000016084F8348084F83590E16B09B1204638
:103A50008847606D002821D0606D10F0010F15D0EF
:103A6000052084F835002068016821F0010101601B
:103A70000098401C0090B84204D82068006810F0FC
:103A8000010FF5D184F8348084F83590E16C002979
:103A900004D001B02046BDE8F0430847BDE8F883F4
:103AA000900000202DE9F041044600F0F3FA0546AD
:103AB000DCB1002684F83460022084F835002068E8
:103AC000016821F0010101602068006810F0010F19
:103AD00013D000F0DFFA401B052809D920206065CB
:103AE000032084F83500BDE8F0810120BDE8F081B5
:103AF0002068006810F0010FEBD121680868234AA4
:103B00001040A3686268D4F810C01A43E36843EA1F
:103B10000C031A4363691A43A3691A43E3691A43FE
:103B2000236A1A431043626A042A03D1236BE26AB0
:103B30001A43104308602068406920F00701606A5A
:103B400040EA0105012704280ED1A06A0543E06A76
:103B500050B12046FEF756FB30B14020606584F836
:103B600035700120BDE8F081206845612046FEF7F0
:103B70002FFB94F85C103F2202FA01F18160666528
:103B800084F835700020BDE8F08100003F8010F01F
:103B900070B504460025A66D94F8340001280DD0B8
:103BA000012084F8340094F835C00020BCF1010FE6
:103BB00006D084F834000225284670BD022070BD6E
:103BC0004FF0020C84F835C060652046FEF759FBC3
:103BD00094F85C003F2101FA00F0B06020680168B1
:103BE00041F0160101602068416941F080014161A6
:103BF000206C20B12068016841F008010160206854
:103C0000016841F001010160D6E7000070B504468B
:103C100000F040FA0546B4F1FF3F02D004480078B6
:103C2000044400F037FA401BA042FAD370BD0000F4
:103C3000800400202DE9F04104460F46DFF898800B
:103C400098F8180001280AD0012088F818004CF2D2
:103C50005030FEF735FE0246100003D035E002205A
:103C6000BDE8F0814FF0FF30386020681B4E01281E
:103C700015D0A568E0682844A84224D9217C2846AC
:103C8000FEF730FD4CF25030FEF71AFE0246306867
:103C900020F0FA00306010000FD03D6013E0207C6F
:103CA0006168FEF773FD4CF25030FEF709FE0246E4
:103CB000306820F00400306005E06D1CA168E06809
:103CC0000844A842DAD8FEF735FD002088F818002D
:103CD0001046BDE8F081000088470020103C0240FB
:103CE0000348016841F00041016000207047000076
:103CF000103C02402DE9F0410646884614461D4618
:103D00001A4F387E012807D0012038764CF2503007
:103D1000FEF7D6FD18B115E00220BDE8F081AEB186
:103D2000012E18D0022E1BD022462B464046FEF70D
:103D300051FD4CF25030FEF7C3FD0D490A6822F0E8
:103D400001020A6000213976BDE8F081E1B2404607
:103D5000FEF730FDEDE7A1B24046FEF753FDE8E780
:103D600021464046FEF760FDE3E70000884700205B
:103D7000103C0240002008490A6812F0004F09D0A8
:103D8000074A064B1360074B1360096811F0004F98
:103D900000D0012070470000103C0240230167451D
:103DA000043C0240AB89EFCD10B50446102C11D174
:103DB0001F48007840F001001D4908701D48007838
:103DC00040F001001B4908701B48007870B30FF0E9
:103DD0003BFE2BE0202C0BD11848007840F001006E
:103DE000164908701448007800B30FF02DFE1DE04E
:103DF000082C06D11248007840F0010010490870E4
:103E000014E0012C12D112F065F801280ED00D49F2
:103E10000D48006811F05AFB0A48006830B12007CD
:103E20000A490860BFF34F8FBFF36F8F10BD0000CA
:103E3000AA020020AB020020AD020020A90200204F
:103E4000AC020020200300208402002004ED00E0EA
:103E500010B504490A68024202D00860FFF7A4FFC7
:103E600010BD0000143C01402DE9F84F0022DFF89E
:103E70000082DFF80092DFF800A24FF0030E0F2758
:103E8000012303FA02F50B682B40AB427DD1D1F838
:103E900004C0BCF1020F02D0BCF1120F12D14FEAE4
:103EA000D20C00EB8C0CDCF820605407E40E07FA0F
:103EB00004FB26EA0B06D1F810B00BFA04F43443E5
:103EC000CCF8204006684FEA420C0EFA0CF4A643E8
:103ED00091F804B00BF0030B0BFA0CFB4BEA06064F
:103EE00006604E68012E05D0022E03D0112E01D09F
:103EF000122E11D18668A643D1F80CB00BFA0CFB38
:103F00004BEA06068660466826EA05050E79C6F382
:103F10000016964035434560C56825EA04048D685F
:103F200005FA0CFC4CEA040CC0F80CC0D1F804C033
:103F30001CF0805F7DD0D8F800C04CF4804CC8F8ED
:103F400000C0D8F800C00CF4804CCDF800C022F0BE
:103F5000030C0CF1804404F59834D4F808C8950794
:103F60002D0F07FA05F62CEA0606A0F1804CBCF5E9
:103F7000003C64D0A0F1804CBCF5013C62D0A0F1C3
:103F8000804CBCF5023C60D000E052E0A0F1804CD7
:103F9000BCF5033C5CD0A0F1804CBCF5043C5AD08D
:103FA000A0F1804CBCF5053C58D0A0F1804CBCF58C
:103FB000063C56D0A0F1804CBCF5073C54D04FF0E5
:103FC000080C0CFA05FC4CEA060CC4F808C8D9F831
:103FD00000C02CEA030C4C6814F4803F01D04CEA7A
:103FE000030CC9F800C0254CD4F800C02CEA030C1F
:103FF0004D6815F4003F01D04CEA030CC4F800C032
:10400000DAF800C02CEA030C4C6814F4801F01D0CD
:104010004CEA030CCAF800C0194CD4F800C02CEAD2
:10402000030C4D6815F4001F01D04CEA030CC4F8D2
:1040300000C0521C102AFFF423AFBDE8F88F4FF0E8
:10404000000CBEE74FF0010CBBE74FF0020CB8E7E5
:104050004FF0030CB5E74FF0040CB2E74FF0050C3E
:10406000AFE74FF0060CACE74FF0070CA9E70000F4
:1040700044380240003C0140083C0140043C0140FF
:104080000C3C0140002A01D0816170470904816124
:1040900070470000014880687047000080040020DD
:1040A00070B50446002C04D094F83D00002510B1F2
:1040B00006E0012070BD84F83C50204600F0D6FA9E
:1040C000242084F83D002068016821F0010101608E
:1040D00001F0C0FA544B6168994203D853498842B1
:1040E00003D304E05249884201D2012070BD5149F6
:1040F000B0FBF1F12268D2F804C02CF03F0C4CEA7E
:10410000010CC2F804C062689A4201D84A1C07E058
:104110004FF4967251434FF47A72B1FBF2F14A1C9C
:104120002168D1F820C02CF03F0C42EA0C020A6250
:104130006168994210D84900401EB0FBF1F2521C50
:10414000C2F30B02042A01D2042026E0B0FBF1F0F6
:10415000401CC0F30B0020E0A268002A50D001EB05
:10416000C10303EB0113A0F1010CBCFBF3F35B1CD7
:1041700043F480431B051B0D4AD0002A4AD001EBB3
:10418000C10202EB0111401EB0FBF1F0401CC0F374
:104190000B0040F4804040F400402168CA6922F0DE
:1041A000FF0222F44F421043C861216AE0690143D3
:1041B0002068026822F0C00211430160E1682069B2
:1041C00001432068826822F0FF0222F40342114377
:1041D0008160A169606901432068C26822F0FF0222
:1041E0001143C1602068016841F00101016025644C
:1041F000202084F83D00256384F83E50002070BDE7
:1042000001EB4103A0F1010CBCFBF3F35B1CB1E734
:104210000120C2E701EB4101401EB0FBF1F0401C60
:10422000C0F30B00B7E70000A086010080841E00E9
:1042300000093D0040420F002DE9FF4F83B00446C6
:104240008A469346DDF84490DDF84080129EFFF7E1
:1042500021FF054694F83D00202803D007B0022036
:10426000BDE8F08F19230122A0492046009502F0F5
:1042700017FF18B107B00220BDE8F08F94F83C009A
:10428000012808D0012084F83C002068016811F062
:10429000010F04D007E007B00220BDE8F08F0168ED
:1042A00041F0010101602068016821F400610160B2
:1042B000222084F83D00402084F83E000027276437
:1042C000C4F82480A4F82A90608D20858848E06294
:1042D000019500965A4651462046069B02F0B8FDCD
:1042E00018B107B00120BDE8F08F208D10B3012870
:1042F00029D0022835D02068416980690290208D3C
:10430000002800F0E880DFF8EC81208D032800F21F
:10431000B780012834D002284AD0334600224146D3
:104320002046009502F0BCFE00286CD007B00120AA
:10433000BDE8F08F2068416981690291016841F40C
:1043400000710160DBE72068016821F48061016091
:104350002068416981690291016841F4007101603E
:10436000CDE72068016821F4806101602068016860
:1043700041F4006101602068416980690290BEE7F4
:104380002A463146204602F04CFF18B107B0012002
:10439000BDE8F08F20680069616A0870606A401C9F
:1043A0006062208D401E2085608D401E60858EE0FD
:1043B0003346002241462046009502F071FE18B1B6
:1043C00007B00120BDE8F08F2068016841F400715A
:1043D000016020680069616A0870606A401C606260
:1043E000218D491E2185618D491E618521680969DC
:1043F0000170606A401C6062208D401E2085608DC7
:10440000401E608563E02068016821F480610160DE
:1044100020680069616A0870606A401C6062208DD3
:10442000401E2085608D401E608533460022414637
:104430002046009502F034FE18B107B00120BDE817
:10444000F08F2068016841F4007101602068006904
:10445000616A0870606A401C6062218D491E218576
:10446000618D491E6185216809690170606A401C7F
:104470006062208D401E2085608D401E608526E094
:104480002A463146204602F0CCFE18B107B0012082
:10449000BDE8F08F20680069616A0870606A401C9E
:1044A0006062218D491E2185618D491E61852268CA
:1044B000516911F0040F0AD011690170606A401C43
:1044C0006062208D401E2085608D401E6085208D9D
:1044D00000287FF41AAF202084F83D0084F83E7055
:1044E00084F83C7007B00020BDE8F08F0200100097
:1044F0000000FFFF040001002DE9FF4F83B00446D8
:104500008A469346DDF84490DDF84080129EFFF71E
:10451000C1FD054694F83D00202803D007B00220D5
:10452000BDE8F08F192301224E492046009502F084
:10453000B7FD18B107B00220BDE8F08F94F83C0039
:10454000012808D0012084F83C002068016811F09F
:10455000010F04D007E007B00220BDE8F08F01682A
:1045600041F0010101602068016821F400610160EF
:10457000212084F83D00402084F83E000027276475
:10458000C4F82480A4F82A90608D20853648E06223
:10459000019500965A4651462046069B02F0F2FCD1
:1045A00018B107B00120BDE8F08F208D002836D06B
:1045B0002A463146204602F072FE58B1206C04288B
:1045C00004D12068016841F40071016007B0012046
:1045D000BDE8F08F606A216800780861606A00F1C8
:1045E000010CC4F824C0208D401E80B22085618D4E
:1045F000491E61852368596911F0040F0CD058B128
:104600009CF800001861606A401C6062208D401EAA
:104610002085608D401E6085208D0028C8D12A46E7
:104620003146204602F00EFD58B1206C042804D11A
:104630002068016841F40071016007B00120BDE805
:10464000F08F2068016841F400710160202084F837
:104650003D0084F83E7084F83C7007B00020BDE84F
:10466000F08F0000020010000000FFFF10B586B0C0
:104670000446142101A8FCF77EF82A4920688842E4
:104680004DD100BF002000902748006840F0040092
:10469000254908600846006800F00400009000BF4B
:1046A00000BF00BF002000900846006840F00100F5
:1046B00008600846006800F00100009000BF00BFDD
:1046C00048150190122002900120039003200490CD
:1046D0000420059001A91548FFF7C6FB4FF4807030
:1046E00001901220029001200390032004900420E6
:1046F000059001A90E48FFF7B7FB00BF002000900E
:1047000009481030006840F4000007491031086083
:104710000846006800F40000009000BF00BF06B02B
:1047200010BD0000005C004030380240000802402C
:10473000000002400248816802781144816070479D
:104740008004002010B50B48016841F4007101603D
:10475000016841F480610160016841F48071016089
:10476000032000F0B9F8002000F006F800F048F847
:10477000002010BD003C024070B588B00446002502
:104780000026002221461C2000F072F81C2000F0B8
:1047900061F800BF002001901648006840F0010059
:1047A000144908600846006800F00100019000BF4D
:1047B00000BF02A903A800F029FF00F04BFF45004D
:1047C0000D48B5FBF0F0461E4FF080400B490860E5
:1047D00040F2E7310948C160466000210161816013
:1047E00001F078FC20B9054801F030FD08B070BD3B
:1047F0000120FBE74038024040420F00D02B002050
:1048000008B500BF002000901148006840F48040C7
:104810000F4908600846006800F48040009000BF1F
:1048200000BF00BF00200090081F006840F08050CB
:10483000091F08600846006800F08050009000BF23
:1048400000BF00220F21901E00F012F808BD0000EA
:104850004438024000280ADB00F01F01012202FA5E
:1048600001F14009800000F1E020C0F8001170471C
:1048700010B4184B1B68C3F30223C3F1070CBCF13F
:10488000040F01D94FF0040C1C1D072C01D200238A
:1048900000E0DB1E012404FA0CFCACF1010C0CEA74
:1048A0000101994004FA03F35B1E1A4011430028EA
:1048B00006DB00F1E020090180F8001410BC70470D
:1048C00000F00F0000F1E020090180F8141D10BC79
:1048D000704700000CED00E000F00700064A116888
:1048E0004FF6FF03194041EA002040F0FD7040F010
:1048F00080601060704700000CED00E0BFF34F8F48
:1049000005480168054A01F4E06111430160BFF305
:104910004F8F00BFFDE700000CED00E00400FA053A
:104920007047006841620020704730B40368586ADD
:1049300000291BD0D3F828C000EB1C4C0020012913
:10494000A1F101014FF4827408D004EB80055D5998
:104950000CEB154C401CC0B28842F6D304EB81012D
:104960004CEA0240585030BC0020704740EA0240F8
:104970009862F8E710B50446D4F8040409F096F8F4
:1049800010BD70B504460D46C5EBC50304F13C01EE
:1049900001EB8301CA682946D4F8040408F0D6FF65
:1049A00070BD70B504460D46C5EBC50304F5FE7138
:1049B00001EB8301CA682946D4F8040409F031F8F0
:1049C00070BD10B50446D4F8040409F071F810BDA8
:1049D00070B5044611F0800F01F00F00C0EBC0016C
:1049E00004EB81014FF001024FF0000502D03C3191
:1049F0004A7002E001F5FE714D70087094F8BC0336
:104A0000012808D084F8BC23206809F0A9FC84F8A8
:104A1000BC53002070BD022070BD70B5044601F08B
:104A20000F026068824201D9012070BD01F00F00C1
:104A3000C0EBC00011F0800F04EB80004FF00103C9
:104A40004FF0000503D000F13C014B7002E000F58F
:104A5000FE714D708D700A7094F8BC03012808D067
:104A600084F8BC33206809F06DFE84F8BC53002044
:104A700070BD022070BD01F00F01C1EBC10100EB60
:104A80008100D0F81402704770B5044611F0800F11
:104A900001F00F00C0EBC00104EB81014FF0010CED
:104AA0004FF0000503D03C3181F801C002E001F570
:104AB000FE714D7008708A60CB704A7802B1C88070
:104AC000022B00D10D7194F8BC03012808D084F8A2
:104AD000BCC3206809F07EFB284684F8BC5370BD37
:104AE000022070BD10B50C4604F00F0CCCEBCC01CD
:104AF00000EB810101F5FE71CA604B6100238B61FF
:104B00004B7081F800C00369012B00D10A6114F0D9
:104B10000F0F05D0027C006809F06FFE002010BD69
:104B2000027C006809F048FDF8E770B504460D46C0
:104B3000616805F00F00884201D9012070BD15F0B1
:104B4000800F4FF000064FF0010206D0C0EBC0010D
:104B500004EB81013C314A7006E0C5EBC50104EB72
:104B6000810101F5FE714E708A70087094F8BC03E3
:104B7000012808D084F8BC23206809F00FFE15F046
:104B80000F0F02D007E0022070BD217C04F5717286
:104B9000206809F0A7FD84F8BC63002070BD10B543
:104BA0000C4604F00F0CCCEBCC0100EB81013C3146
:104BB000CA604B6100238B6101234B7081F800C0F8
:104BC0000369012B00D10A6114F00F0F05D0027C9C
:104BD000006809F012FE002010BD027C006809F098
:104BE000EBFCF8E72DE9F05F04462568284609F05C
:104BF00055FF00287ED1206809F07CFF002879D07D
:104C0000206809F077FF10F0020F04D02068416996
:104C100001F002014161206809F06CFF10F4002FDF
:104C20004FF001094FF0080A4FF0100B4CD000264E
:104C3000206809F03EFF80465FEA080044D018F083
:104C4000010F3BD0F1B2206809F04CFF074617F086
:104C5000010F07D005EB4610C0F8089B31462046EF
:104C600003F0D2FE17F0080F07D03146204603F0BC
:104C700097FE05EB4610C0F808AB17F0100F03D0F5
:104C800005EB4610C0F808BB17F0200F0DD02069C7
:104C9000012805D104F571720121206809F022FD77
:104CA00005EB46112020C1F8080B17F4005F05D072
:104CB00005EB46114FF40050C1F8080B761C4FEA83
:104CC0005808B8F1000FBAD1206809F013FF10F4AA
:104CD000802F64D0206809F0E5FE07460026002FEB
:104CE0005DD017F0010F56D0F1B2206809F0E8FE50
:104CF000804600E08BE118F0010F27D006F00F008E
:104D000009FA00F0D5F834188143C5F8341805EBDA
:104D10004610C0F808992069012807D1C6EBC600E3
:104D200004EB8000426C816C11448164F1B2204636
:104D3000FFF727FE2069012808D13EB9206D28B968
:104D400004F571720121206809F0CCFC18F0080FFD
:104D500003D005EB4610C0F808A918F0100F03D0D7
:104D600005EB4610C0F808B918F0400F04D005EB69
:104D700046114020C1F8080918F0020F04D005EBD5
:104D800046110220C1F8080918F0800F03D03146FF
:104D9000204603F0B1FE761C7F08002FA1D12068C9
:104DA00009F0A8FE10F0004F11D0D5F8040820F04B
:104DB0000101C5F8041894F8F40301285BD02046DB
:104DC00000F046FA2068416901F000414161206825
:104DD00009F090FE10F4006F0CD0D5F8080810F020
:104DE000010F02D0204600F07FFA2068416901F4EB
:104DF00000614161206809F07DFE10F4805F60D0A1
:104E0000D5F8040820F00101C5F804181021206825
:104E100009F020FE00216068002817D94FF67F3284
:104E200005EB4110C0F80829D0F8003923F400132D
:104E3000C0F80039C0F8082BD0F8003B23F4001369
:104E4000C0F8003B491C60688842E9D8D5F81C08C6
:104E500040F00111C5F81C18206BA0B1D5F88408EA
:104E600040F00B01C5F88418D5F8440840F00B0158
:104E7000C5F8441814E0002084F8F403002120460B
:104E8000FFF74EFD9EE7D5F8140842F22B010143CF
:104E9000C5F81418D5F8100840F00B01C5F8101823
:104EA000D5F8000820F4FE61C5F80018217C04F54F
:104EB0007172206809F016FC2068416901F4805184
:104EC0004161206809F016FE10F4005F16D02068DA
:104ED00009F0CEF9206809F0D1FDE06000F0B4FBE4
:104EE00023680146227B184609F04AFE204600F05E
:104EF00097F92068416901F400514161206809F087
:104F0000F9FD10F0100F36D02068816921F01001F2
:104F100081612F6A07F00F00C0EBC00004EB800036
:104F200000F5FE76C7F34340022802D0062812D0CF
:104F30001CE047F6F070074218D0C7F30A12174674
:104F40002846F16809F0DAFDF0683844F060B0698D
:104F50003844B0610AE0082204F57171284609F06E
:104F6000CDFDB069C7F30A110844B06120688169BA
:104F700041F010018161206809F0BCFD10F0080FBC
:104F800007D0204600F06BF92068416901F0080164
:104F90004161206809F0AEFD10F4801F08D00021A7
:104FA000204600F036F82068416901F48011416123
:104FB000206809F09FFD10F4001F08D00021204652
:104FC00000F030F82068416901F400114161206867
:104FD00009F090FD10F0804F07D02046FFF7CAFC83
:104FE0002068416901F080414161206809F082FD3B
:104FF00010F0040F0BD02068456815F0040F02D0A4
:105000002046FFF7DEFC2068416829434160BDE887
:10501000F09F70B504460D462946D4F8040408F004
:10502000ABFD70BD70B504460D462946D4F80404A6
:1050300008F0A4FD70BD2DE9F0478AB00446002CAD
:1050400005D0266894F8BD03002520B108E00AB019
:105050000120BDE8F08784F8BC53204600F08CF8AE
:10506000032084F8BD03F06B10F4807F00D125612C
:10507000206809F09BFA04F11000D4F82C8090E825
:105080000F10A76A666A8DE80F10CDF81C8006978E
:105090000596616B206B0991089094E80F0009F068
:1050A00001F9022728B184F8BD730AB00120BDE8D8
:1050B000F0870021206809F033FD00216068012697
:1050C000002813D9C1EBC10004EB800080F83D60DB
:1050D00080F83C10A0F8421080F83F504564856489
:1050E0000565481CC1B260688842EBD80021606841
:1050F000002814D9C1EBC10004EB800080F8FD51F9
:1051000080F8FC1180F8FF51C0F80452C0F8085232
:10511000C0F81052481CC1B260688842EAD804F155
:105120001000D4F82CA090E80F10D4F82890D4F8F0
:1051300024808DE80F10CDF81CA0CDF81890CDF884
:105140001480616B206B0991089094E80F0009F0BE
:1051500067F928B184F8BD730AB00120BDE8F08773
:1051600084F8385084F8BD63206809F04DF90AB01E
:105170000020BDE8F087000010B586B00446142179
:1051800001A8FBF7F8FA2068B0F1A04F42D100BFA8
:10519000002000902048006840F001001E4908608F
:1051A0000846006800F00100009000BF00BF4FF407
:1051B000C050019002200290002003900320049030
:1051C0000A20059001A91548FEF74EFE00BF1248BF
:1051D000001D006840F080000F49091D086000BFF5
:1051E000002000900C481430006840F480400A49C8
:1051F000143108600846006800F48040009000BF49
:1052000000BF00BF002205214320FFF731FB4320F0
:10521000FFF720FB06B010BD30380240000002400E
:1052200070B504460125E06808B9002506E0E0688D
:10523000022801D1012501E0FDF752FA2946D4F8F0
:10524000040408F008FDD4F8040408F0C9FC70BD9B
:1052500010B50446D4F8040408F0EBFC10BD10B5FA
:105260000446D4F8040408F0EAFC10BD10B5044666
:1052700094F8BC0301280BD0012084F8BC0384F807
:105280003810206809F064FC002084F8BC0310BDCD
:10529000022010BD10B5044604F57171D4F8040461
:1052A00008F0EFFC10BD10B50446206894F8BC135C
:1052B000012906D0012184F8BC13A16A012902D07A
:1052C00008E0022010BDA169012903D0816B41F4DF
:1052D00080318163206809F08BF8206809F0A1FB18
:1052E000002084F8BC0310BD10B50446D4F80404B3
:1052F00008F018FD2068D0F8000E40F00100216889
:10530000C1F8000E206A28B10348006840F006008A
:105310000149086010BD000010ED00E02DE9F843E0
:1053200004464FF0010820784FF0000710F0050FF9
:1053300033D0DFF84491C9F86870FEF7ABFE06463B
:105340004E4D286810F0006F0BD0FEF7A3FE801BB7
:10535000022802D90320BDE8F883286810F0006F06
:10536000F3D16068217A800140EA01704449086005
:10537000C9F86880FEF78EFE0646286810F0006FB8
:105380000BD1FEF787FE801B022802D90320BDE85F
:10539000F883286810F0006FF3D0207810F0020F27
:1053A0005CD03848016841F080510160006800F02D
:1053B00080500090344D286840F480702860FEF7DB
:1053C00069FE0646286810F4807F0BD1FEF762FE66
:1053D000801B022802D90320BDE8F883286810F456
:1053E000807FF3D0294D286800F4407028B3A1894C
:1053F00001F44071814220D0286820F44070244993
:10540000C1F800800F602860286810F0010F14D0E8
:10541000FEF740FE0646286810F0020F0DD141F25B
:105420008837FEF737FE801BB84202D90320BDE85B
:10543000F883286810F0020FF3D0E0684FF4407151
:1054400031EA000213490CD0086820F4F810086013
:105450002868A189C1F30B01084328600020BDE83A
:10546000F8830A6820F4407022F4F81220F07040AB
:1054700010430860ECE7000000004742003802409B
:1054800084380240403802400070004070380240CA
:10549000400E4742083802402DE9F04704460D46C9
:1054A000002C13D0DFF85091D9F80000EFB200F0D3
:1054B0000F00A8420DD289F80070D9F8000000F062
:1054C0000F00A84205D00120BDE8F0870120BDE80B
:1054D000F0872068494E10F0020F14D010F0040F2E
:1054E00003D0306840F4E0503060207810F0080FAE
:1054F00003D0306840F4604030603068A16820F02C
:10550000F00008433060207810F0010F3ED0606852
:105510003B49012808D002280DD003280BD0096888
:1055200011F0020F28D00AE0096811F4003F06D1FB
:105530000120BDE8F087096811F0007F19D03168BB
:1055400021F0030108433060FEF7A4FD8046306877
:10555000616800F00C00B0EB810F17D041F2883A7F
:10556000FEF798FDA0EB0800504508D90320BDE8E0
:10557000F0870120BDE8F0870120BDE8F0873068A2
:10558000616800F00C00B0EB810FE9D1D9F80000A0
:1055900000F00F00A8420AD989F80070D9F800007D
:1055A00000F00F00A84202D00120BDE8F08720786B
:1055B00010F0040F05D03068E16820F4E050084393
:1055C0003060207810F0080F06D03068216920F490
:1055D000604040EAC100306000F05CF83168094A80
:1055E000C1F30311515CC840074908600020FFF770
:1055F000C3F80020BDE8F087003C024008380240B4
:105600000038024098780108900000200F220260C4
:105610000B4A136803F003034360136803F0F003BD
:105620008360136803F4E053C360126802F46042BD
:10563000D20802610348006800F00F00086070475C
:1056400008380240003C02400148006870470000F2
:105650009000002000B5FFF7F7FF04490968044AED
:10566000C1F38221515CC84000BD000008380240EF
:10567000A878010800B5FFF7E7FF04490968044A64
:10568000C1F34231515CC84000BD000008380240FF
:10569000A878010810B51748006810F00C011648EA
:1056A00016D0164B042912D0082911D1144C2168A8
:1056B00001F03F02216811F4800F0AD02068C0F386
:1056C0008810A0FB03010023FAF71EFF09E018462B
:1056D00010BD21680023C1F38811A1FB0001FAF776
:1056E00013FF2168C1F30141491C4900B0FBF1F0EF
:1056F00010BD0000083802400024F400001BB70071
:10570000043802402DE9F84F0446002C10D02078D0
:10571000FA4D10F0010F64D0F948016801F00C0156
:1057200004290DD0006800F00C00082803D011E017
:105730000120BDE8F88FF348006810F4800F09D00D
:10574000286810F4003F4CD06068002849D101203F
:10575000BDE8F88F6068B0F5803F14D0B0F5A02F99
:1057600016D0286820F480302860286820F4802033
:105770002860606810B3FEF78DFC0646286810F4B8
:10578000003F0ED02DE0286840F480302860F0E71C
:10579000286840F480202860286840F48030286021
:1057A000E7E7FEF777FC801B642802D90320BDE8F9
:1057B000F88F286810F4003FF3D012E0FEF76AFC7F
:1057C0000646286810F4003F0BD0FEF763FC801BF0
:1057D000642802D90320BDE8F88F286810F4003F40
:1057E000F3D12078C84F10F0020F4FF0000856D0C8
:1057F000C348016811F00C0F15D0006800F00C00D0
:10580000082804D1BF48006810F4800F0BD0E0686E
:1058100078B301203860FEF73DFC0646286810F09A
:10582000020F12D01DE0286810F0020F05D0E068CA
:10583000012802D00120BDE8F88F2868216920F0F6
:10584000F80040EAC100286029E0FEF723FC801B35
:10585000022802D90320BDE8F88F286810F0020F53
:10586000F3D02868216920F0F80040EAC1002860E0
:1058700015E0FFE7C7F80080FEF70CFC0646286835
:1058800010F0020F0BD0FEF705FC801B022802D996
:105890000320BDE8F88F286810F0020FF3D12078BC
:1058A00010F0080F33D09948DFF864926169B9B1FC
:1058B00001210160FEF7EEFB0646D9F8000010F06A
:1058C000020F24D1FEF7E6FB801B022802D9032039
:1058D000BDE8F88FD9F8000010F0020FF2D016E002
:1058E000C0F80080FEF7D6FB0646D9F8000010F09D
:1058F000020F0CD0FEF7CEFB801B022802D903203A
:10590000BDE8F88FD9F8000010F0020FF2D120782E
:1059100010F0040F73D04FF00009DFF8F8A1DAF8A7
:10592000000010F0805F0CD1DAF8000040F08050E9
:10593000CAF80000DAF8000000F0805000904FF044
:105940000109DFF8D4B1DBF8000010F4807F1AD130
:10595000DBF8000040F48070CBF80000FEF79AFB03
:105960000646DBF8000010F4807F0CD1FEF792FBB6
:10597000801B022802D90320BDE8F88FDBF8000065
:1059800010F4807FF2D0A068DFF890B1012818D021
:1059900005281DD0DBF8000020F00100CBF8000046
:1059A000DBF8000020F00400CBF80000A06838B35A
:1059B000FEF770FB0646DBF8000010F0020F14D073
:1059C0003CE0DBF8000040F00100CBF80000EDE720
:1059D000DBF8000040F00400CBF80000DBF800002A
:1059E00040F00100CBF80000E0E7FEF753FB811B1D
:1059F00041F28830814204D90320BDE8F88F26E0C7
:105A000005E0DBF8000010F0020FEED016E0FEF724
:105A100041FB0646DBF8000010F0020F0ED0FEF747
:105A200039FB811B41F28830814202D90320BDE855
:105A3000F88FDBF8000010F0020FF0D1B9F1010F80
:105A400005D1DAF8000020F08050CAF80000A06903
:105A5000E8B32B49096801F00C0108296BD0022832
:105A600010D0C7F86080FEF715FB0446286810F0D8
:105A7000007F5ED0FEF70EFB001B022855D90320E5
:105A8000BDE8F88FC7F86080FEF704FB064628687B
:105A900010F0007F0BD0FEF7FDFA801B022802D920
:105AA0000320BDE8F88F286810F0007FF3D1216A49
:105AB000E069A26A0843616A4FF0FF33890103EB92
:105AC000520241EA0241084394F82C1000E030E011
:105AD00040EA01610B48016001203866FEF7DAFAFE
